{
  "_format": "hh-sol-artifact-1",
  "contractName": "DigiTicket",
  "sourceName": "contracts/redeemable_nft.sol",
  "abi": [
    {
      "inputs": [
        {
          "internalType": "string",
          "name": "name",
          "type": "string"
        },
        {
          "internalType": "string",
          "name": "symbol",
          "type": "string"
        },
        {
          "internalType": "string",
          "name": "version",
          "type": "string"
        },
        {
          "internalType": "uint256",
          "name": "maxtokens",
          "type": "uint256"
        }
      ],
      "stateMutability": "nonpayable",
      "type": "constructor"
    },
    {
      "inputs": [],
      "name": "ECDSAInvalidSignature",
      "type": "error"
    },
    {
      "inputs": [
        {
          "internalType": "uint256",
          "name": "length",
          "type": "uint256"
        }
      ],
      "name": "ECDSAInvalidSignatureLength",
      "type": "error"
    },
    {
      "inputs": [
        {
          "internalType": "bytes32",
          "name": "s",
          "type": "bytes32"
        }
      ],
      "name": "ECDSAInvalidSignatureS",
      "type": "error"
    },
    {
      "inputs": [
        {
          "internalType": "address",
          "name": "sender",
          "type": "address"
        },
        {
          "internalType": "uint256",
          "name": "tokenId",
          "type": "uint256"
        },
        {
          "internalType": "address",
          "name": "owner",
          "type": "address"
        }
      ],
      "name": "ERC721IncorrectOwner",
      "type": "error"
    },
    {
      "inputs": [
        {
          "internalType": "address",
          "name": "operator",
          "type": "address"
        },
        {
          "internalType": "uint256",
          "name": "tokenId",
          "type": "uint256"
        }
      ],
      "name": "ERC721InsufficientApproval",
      "type": "error"
    },
    {
      "inputs": [
        {
          "internalType": "address",
          "name": "approver",
          "type": "address"
        }
      ],
      "name": "ERC721InvalidApprover",
      "type": "error"
    },
    {
      "inputs": [
        {
          "internalType": "address",
          "name": "operator",
          "type": "address"
        }
      ],
      "name": "ERC721InvalidOperator",
      "type": "error"
    },
    {
      "inputs": [
        {
          "internalType": "address",
          "name": "owner",
          "type": "address"
        }
      ],
      "name": "ERC721InvalidOwner",
      "type": "error"
    },
    {
      "inputs": [
        {
          "internalType": "address",
          "name": "receiver",
          "type": "address"
        }
      ],
      "name": "ERC721InvalidReceiver",
      "type": "error"
    },
    {
      "inputs": [
        {
          "internalType": "address",
          "name": "sender",
          "type": "address"
        }
      ],
      "name": "ERC721InvalidSender",
      "type": "error"
    },
    {
      "inputs": [
        {
          "internalType": "uint256",
          "name": "tokenId",
          "type": "uint256"
        }
      ],
      "name": "ERC721NonexistentToken",
      "type": "error"
    },
    {
      "inputs": [],
      "name": "InvalidShortString",
      "type": "error"
    },
    {
      "inputs": [
        {
          "internalType": "address",
          "name": "owner",
          "type": "address"
        }
      ],
      "name": "OwnableInvalidOwner",
      "type": "error"
    },
    {
      "inputs": [
        {
          "internalType": "address",
          "name": "account",
          "type": "address"
        }
      ],
      "name": "OwnableUnauthorizedAccount",
      "type": "error"
    },
    {
      "inputs": [
        {
          "internalType": "string",
          "name": "str",
          "type": "string"
        }
      ],
      "name": "StringTooLong",
      "type": "error"
    },
    {
      "anonymous": false,
      "inputs": [
        {
          "indexed": true,
          "internalType": "address",
          "name": "owner",
          "type": "address"
        },
        {
          "indexed": true,
          "internalType": "address",
          "name": "approved",
          "type": "address"
        },
        {
          "indexed": true,
          "internalType": "uint256",
          "name": "tokenId",
          "type": "uint256"
        }
      ],
      "name": "Approval",
      "type": "event"
    },
    {
      "anonymous": false,
      "inputs": [
        {
          "indexed": true,
          "internalType": "address",
          "name": "owner",
          "type": "address"
        },
        {
          "indexed": true,
          "internalType": "address",
          "name": "operator",
          "type": "address"
        },
        {
          "indexed": false,
          "internalType": "bool",
          "name": "approved",
          "type": "bool"
        }
      ],
      "name": "ApprovalForAll",
      "type": "event"
    },
    {
      "anonymous": false,
      "inputs": [
        {
          "indexed": false,
          "internalType": "uint256",
          "name": "_fromTokenId",
          "type": "uint256"
        },
        {
          "indexed": false,
          "internalType": "uint256",
          "name": "_toTokenId",
          "type": "uint256"
        }
      ],
      "name": "BatchMetadataUpdate",
      "type": "event"
    },
    {
      "anonymous": false,
      "inputs": [],
      "name": "EIP712DomainChanged",
      "type": "event"
    },
    {
      "anonymous": false,
      "inputs": [
        {
          "indexed": false,
          "internalType": "uint256",
          "name": "_tokenId",
          "type": "uint256"
        }
      ],
      "name": "MetadataUpdate",
      "type": "event"
    },
    {
      "anonymous": false,
      "inputs": [
        {
          "indexed": true,
          "internalType": "address",
          "name": "to",
          "type": "address"
        },
        {
          "indexed": false,
          "internalType": "uint256",
          "name": "tokenId",
          "type": "uint256"
        },
        {
          "indexed": false,
          "internalType": "string",
          "name": "tokenURI",
          "type": "string"
        }
      ],
      "name": "Mint",
      "type": "event"
    },
    {
      "anonymous": false,
      "inputs": [
        {
          "indexed": true,
          "internalType": "address",
          "name": "previousOwner",
          "type": "address"
        },
        {
          "indexed": true,
          "internalType": "address",
          "name": "newOwner",
          "type": "address"
        }
      ],
      "name": "OwnershipTransferred",
      "type": "event"
    },
    {
      "anonymous": false,
      "inputs": [
        {
          "indexed": true,
          "internalType": "uint256",
          "name": "tokenId",
          "type": "uint256"
        },
        {
          "indexed": false,
          "internalType": "uint256",
          "name": "price",
          "type": "uint256"
        }
      ],
      "name": "PriceSet",
      "type": "event"
    },
    {
      "anonymous": false,
      "inputs": [
        {
          "indexed": false,
          "internalType": "uint256",
          "name": "tokenId",
          "type": "uint256"
        },
        {
          "indexed": false,
          "internalType": "address",
          "name": "redeemer",
          "type": "address"
        }
      ],
      "name": "Redeemed",
      "type": "event"
    },
    {
      "anonymous": false,
      "inputs": [
        {
          "indexed": true,
          "internalType": "address",
          "name": "from",
          "type": "address"
        },
        {
          "indexed": true,
          "internalType": "address",
          "name": "to",
          "type": "address"
        },
        {
          "indexed": true,
          "internalType": "uint256",
          "name": "tokenId",
          "type": "uint256"
        }
      ],
      "name": "Transfer",
      "type": "event"
    },
    {
      "inputs": [
        {
          "internalType": "address",
          "name": "to",
          "type": "address"
        },
        {
          "internalType": "uint256",
          "name": "tokenId",
          "type": "uint256"
        }
      ],
      "name": "approve",
      "outputs": [],
      "stateMutability": "nonpayable",
      "type": "function"
    },
    {
      "inputs": [
        {
          "internalType": "address",
          "name": "owner",
          "type": "address"
        }
      ],
      "name": "balanceOf",
      "outputs": [
        {
          "internalType": "uint256",
          "name": "",
          "type": "uint256"
        }
      ],
      "stateMutability": "view",
      "type": "function"
    },
    {
      "inputs": [],
      "name": "eip712Domain",
      "outputs": [
        {
          "internalType": "bytes1",
          "name": "fields",
          "type": "bytes1"
        },
        {
          "internalType": "string",
          "name": "name",
          "type": "string"
        },
        {
          "internalType": "string",
          "name": "version",
          "type": "string"
        },
        {
          "internalType": "uint256",
          "name": "chainId",
          "type": "uint256"
        },
        {
          "internalType": "address",
          "name": "verifyingContract",
          "type": "address"
        },
        {
          "internalType": "bytes32",
          "name": "salt",
          "type": "bytes32"
        },
        {
          "internalType": "uint256[]",
          "name": "extensions",
          "type": "uint256[]"
        }
      ],
      "stateMutability": "view",
      "type": "function"
    },
    {
      "inputs": [
        {
          "internalType": "uint256",
          "name": "tokenId",
          "type": "uint256"
        }
      ],
      "name": "getApproved",
      "outputs": [
        {
          "internalType": "address",
          "name": "",
          "type": "address"
        }
      ],
      "stateMutability": "view",
      "type": "function"
    },
    {
      "inputs": [
        {
          "internalType": "address",
          "name": "redeemer",
          "type": "address"
        }
      ],
      "name": "getNonce",
      "outputs": [
        {
          "internalType": "uint256",
          "name": "",
          "type": "uint256"
        }
      ],
      "stateMutability": "view",
      "type": "function"
    },
    {
      "inputs": [
        {
          "internalType": "address",
          "name": "owner",
          "type": "address"
        },
        {
          "internalType": "address",
          "name": "operator",
          "type": "address"
        }
      ],
      "name": "isApprovedForAll",
      "outputs": [
        {
          "internalType": "bool",
          "name": "",
          "type": "bool"
        }
      ],
      "stateMutability": "view",
      "type": "function"
    },
    {
      "inputs": [],
      "name": "maxTokens",
      "outputs": [
        {
          "internalType": "uint256",
          "name": "",
          "type": "uint256"
        }
      ],
      "stateMutability": "view",
      "type": "function"
    },
    {
      "inputs": [
        {
          "internalType": "address",
          "name": "to",
          "type": "address"
        },
        {
          "internalType": "uint256",
          "name": "tokenId",
          "type": "uint256"
        },
        {
          "internalType": "string",
          "name": "tokenURI",
          "type": "string"
        }
      ],
      "name": "mint",
      "outputs": [],
      "stateMutability": "payable",
      "type": "function"
    },
    {
      "inputs": [],
      "name": "name",
      "outputs": [
        {
          "internalType": "string",
          "name": "",
          "type": "string"
        }
      ],
      "stateMutability": "view",
      "type": "function"
    },
    {
      "inputs": [
        {
          "internalType": "address",
          "name": "",
          "type": "address"
        }
      ],
      "name": "nonces",
      "outputs": [
        {
          "internalType": "uint256",
          "name": "",
          "type": "uint256"
        }
      ],
      "stateMutability": "view",
      "type": "function"
    },
    {
      "inputs": [],
      "name": "owner",
      "outputs": [
        {
          "internalType": "address",
          "name": "",
          "type": "address"
        }
      ],
      "stateMutability": "view",
      "type": "function"
    },
    {
      "inputs": [
        {
          "internalType": "uint256",
          "name": "tokenId",
          "type": "uint256"
        }
      ],
      "name": "ownerOf",
      "outputs": [
        {
          "internalType": "address",
          "name": "",
          "type": "address"
        }
      ],
      "stateMutability": "view",
      "type": "function"
    },
    {
      "inputs": [
        {
          "internalType": "uint256",
          "name": "tokenId",
          "type": "uint256"
        },
        {
          "internalType": "uint256",
          "name": "deadline",
          "type": "uint256"
        },
        {
          "internalType": "bytes",
          "name": "signature",
          "type": "bytes"
        }
      ],
      "name": "redeem",
      "outputs": [],
      "stateMutability": "nonpayable",
      "type": "function"
    },
    {
      "inputs": [],
      "name": "renounceOwnership",
      "outputs": [],
      "stateMutability": "nonpayable",
      "type": "function"
    },
    {
      "inputs": [
        {
          "internalType": "address",
          "name": "from",
          "type": "address"
        },
        {
          "internalType": "address",
          "name": "to",
          "type": "address"
        },
        {
          "internalType": "uint256",
          "name": "tokenId",
          "type": "uint256"
        }
      ],
      "name": "safeTransferFrom",
      "outputs": [],
      "stateMutability": "nonpayable",
      "type": "function"
    },
    {
      "inputs": [
        {
          "internalType": "address",
          "name": "from",
          "type": "address"
        },
        {
          "internalType": "address",
          "name": "to",
          "type": "address"
        },
        {
          "internalType": "uint256",
          "name": "tokenId",
          "type": "uint256"
        },
        {
          "internalType": "bytes",
          "name": "data",
          "type": "bytes"
        }
      ],
      "name": "safeTransferFrom",
      "outputs": [],
      "stateMutability": "nonpayable",
      "type": "function"
    },
    {
      "inputs": [
        {
          "internalType": "address",
          "name": "operator",
          "type": "address"
        },
        {
          "internalType": "bool",
          "name": "approved",
          "type": "bool"
        }
      ],
      "name": "setApprovalForAll",
      "outputs": [],
      "stateMutability": "nonpayable",
      "type": "function"
    },
    {
      "inputs": [
        {
          "internalType": "uint256",
          "name": "tokenId",
          "type": "uint256"
        },
        {
          "internalType": "uint256",
          "name": "price",
          "type": "uint256"
        }
      ],
      "name": "setTokenPrice",
      "outputs": [],
      "stateMutability": "nonpayable",
      "type": "function"
    },
    {
      "inputs": [
        {
          "internalType": "bytes4",
          "name": "interfaceId",
          "type": "bytes4"
        }
      ],
      "name": "supportsInterface",
      "outputs": [
        {
          "internalType": "bool",
          "name": "",
          "type": "bool"
        }
      ],
      "stateMutability": "view",
      "type": "function"
    },
    {
      "inputs": [],
      "name": "symbol",
      "outputs": [
        {
          "internalType": "string",
          "name": "",
          "type": "string"
        }
      ],
      "stateMutability": "view",
      "type": "function"
    },
    {
      "inputs": [
        {
          "internalType": "uint256",
          "name": "",
          "type": "uint256"
        }
      ],
      "name": "tokenPrices",
      "outputs": [
        {
          "internalType": "uint256",
          "name": "",
          "type": "uint256"
        }
      ],
      "stateMutability": "view",
      "type": "function"
    },
    {
      "inputs": [
        {
          "internalType": "uint256",
          "name": "tokenId",
          "type": "uint256"
        }
      ],
      "name": "tokenURI",
      "outputs": [
        {
          "internalType": "string",
          "name": "",
          "type": "string"
        }
      ],
      "stateMutability": "view",
      "type": "function"
    },
    {
      "inputs": [],
      "name": "totalMinted",
      "outputs": [
        {
          "internalType": "uint256",
          "name": "",
          "type": "uint256"
        }
      ],
      "stateMutability": "view",
      "type": "function"
    },
    {
      "inputs": [
        {
          "internalType": "address",
          "name": "from",
          "type": "address"
        },
        {
          "internalType": "address",
          "name": "to",
          "type": "address"
        },
        {
          "internalType": "uint256",
          "name": "tokenId",
          "type": "uint256"
        }
      ],
      "name": "transferFrom",
      "outputs": [],
      "stateMutability": "nonpayable",
      "type": "function"
    },
    {
      "inputs": [
        {
          "internalType": "address",
          "name": "newOwner",
          "type": "address"
        }
      ],
      "name": "transferOwnership",
      "outputs": [],
      "stateMutability": "nonpayable",
      "type": "function"
    }
  ],
  "bytecode": "0x61016060405234801561001157600080fd5b5060405161471138038061471183398181016040528101906100339190610524565b8382338686816000908161004791906107f6565b50806001908161005791906107f6565b505050600073ffffffffffffffffffffffffffffffffffffffff168173ffffffffffffffffffffffffffffffffffffffff16036100cc5760006040517f1e4fbdf70000000000000000000000000000000000000000000000000000000081526004016100c39190610909565b60405180910390fd5b6100db8161019660201b60201c565b506100f060088361025c60201b90919060201c565b610120818152505061010c60098261025c60201b90919060201c565b6101408181525050818051906020012060e08181525050808051906020012061010081815250504660a081815250506101496102ac60201b60201c565b608081815250503073ffffffffffffffffffffffffffffffffffffffff1660c08173ffffffffffffffffffffffffffffffffffffffff1681525050505080600c8190555050505050610aa2565b6000600760009054906101000a900473ffffffffffffffffffffffffffffffffffffffff16905081600760006101000a81548173ffffffffffffffffffffffffffffffffffffffff021916908373ffffffffffffffffffffffffffffffffffffffff1602179055508173ffffffffffffffffffffffffffffffffffffffff168173ffffffffffffffffffffffffffffffffffffffff167f8be0079c531659141344cd1fd0a4f28419497f9722a3daafe3b4186f6b6457e060405160405180910390a35050565b600060208351101561027e576102778361030760201b60201c565b90506102a6565b8261028e8361036f60201b60201c565b600001908161029d91906107f6565b5060ff60001b90505b92915050565b60007f8b73c3c69bb8fe3d512ecc4cf759cc79239f7b179b0ffacaa9a75d522b39400f60e0516101005146306040516020016102ec95949392919061094c565b60405160208183030381529060405280519060200120905090565b600080829050601f8151111561035457826040517f305a27a900000000000000000000000000000000000000000000000000000000815260040161034b91906109e9565b60405180910390fd5b80518161036090610a3b565b60001c1760001b915050919050565b6000819050919050565b6000604051905090565b600080fd5b600080fd5b600080fd5b600080fd5b6000601f19601f8301169050919050565b7f4e487b7100000000000000000000000000000000000000000000000000000000600052604160045260246000fd5b6103e082610397565b810181811067ffffffffffffffff821117156103ff576103fe6103a8565b5b80604052505050565b6000610412610379565b905061041e82826103d7565b919050565b600067ffffffffffffffff82111561043e5761043d6103a8565b5b61044782610397565b9050602081019050919050565b60005b83811015610472578082015181840152602081019050610457565b60008484015250505050565b600061049161048c84610423565b610408565b9050828152602081018484840111156104ad576104ac610392565b5b6104b8848285610454565b509392505050565b600082601f8301126104d5576104d461038d565b5b81516104e584826020860161047e565b91505092915050565b6000819050919050565b610501816104ee565b811461050c57600080fd5b50565b60008151905061051e816104f8565b92915050565b6000806000806080858703121561053e5761053d610383565b5b600085015167ffffffffffffffff81111561055c5761055b610388565b5b610568878288016104c0565b945050602085015167ffffffffffffffff81111561058957610588610388565b5b610595878288016104c0565b935050604085015167ffffffffffffffff8111156105b6576105b5610388565b5b6105c2878288016104c0565b92505060606105d38782880161050f565b91505092959194509250565b600081519050919050565b7f4e487b7100000000000000000000000000000000000000000000000000000000600052602260045260246000fd5b6000600282049050600182168061063157607f821691505b602082108103610644576106436105ea565b5b50919050565b60008190508160005260206000209050919050565b60006020601f8301049050919050565b600082821b905092915050565b6000600883026106ac7fffffffffffffffffffffffffffffffffffffffffffffffffffffffffffffffff8261066f565b6106b6868361066f565b95508019841693508086168417925050509392505050565b6000819050919050565b60006106f36106ee6106e9846104ee565b6106ce565b6104ee565b9050919050565b6000819050919050565b61070d836106d8565b610721610719826106fa565b84845461067c565b825550505050565b600090565b610736610729565b610741818484610704565b505050565b5b818110156107655761075a60008261072e565b600181019050610747565b5050565b601f8211156107aa5761077b8161064a565b6107848461065f565b81016020851015610793578190505b6107a761079f8561065f565b830182610746565b50505b505050565b600082821c905092915050565b60006107cd600019846008026107af565b1980831691505092915050565b60006107e683836107bc565b9150826002028217905092915050565b6107ff826105df565b67ffffffffffffffff811115610818576108176103a8565b5b6108228254610619565b61082d828285610769565b600060209050601f831160018114610860576000841561084e578287015190505b61085885826107da565b8655506108c0565b601f19841661086e8661064a565b60005b8281101561089657848901518255600182019150602085019450602081019050610871565b868310156108b357848901516108af601f8916826107bc565b8355505b6001600288020188555050505b505050505050565b600073ffffffffffffffffffffffffffffffffffffffff82169050919050565b60006108f3826108c8565b9050919050565b610903816108e8565b82525050565b600060208201905061091e60008301846108fa565b92915050565b6000819050919050565b61093781610924565b82525050565b610946816104ee565b82525050565b600060a082019050610961600083018861092e565b61096e602083018761092e565b61097b604083018661092e565b610988606083018561093d565b61099560808301846108fa565b9695505050505050565b600082825260208201905092915050565b60006109bb826105df565b6109c5818561099f565b93506109d5818560208601610454565b6109de81610397565b840191505092915050565b60006020820190508181036000830152610a0381846109b0565b905092915050565b600081519050919050565b6000819050602082019050919050565b6000610a328251610924565b80915050919050565b6000610a4682610a0b565b82610a5084610a16565b9050610a5b81610a26565b92506020821015610a9b57610a967fffffffffffffffffffffffffffffffffffffffffffffffffffffffffffffffff8360200360080261066f565b831692505b5050919050565b60805160a05160c05160e051610100516101205161014051613c15610afc6000396000611802015260006117c70152600061255b0152600061253a01526000611d9701526000611ded01526000611e160152613c156000f3fe6080604052600436106101665760003560e01c806384b0196e116100d1578063c87b56dd1161008a578063e831574211610064578063e831574214610559578063e985e9c514610584578063eb685c47146105c1578063f2fde38b146105ea57610166565b8063c87b56dd146104c3578063d3fc986414610500578063e5afe3e61461051c57610166565b806384b0196e146103bf5780638da5cb5b146103f057806395d89b411461041b578063a22cb46514610446578063a2309ff81461046f578063b88d4fde1461049a57610166565b80632d0335ab116101235780632d0335ab1461028b57806342842e0e146102c85780636352211e146102f157806370a082311461032e578063715018a61461036b5780637ecebe001461038257610166565b806301ffc9a71461016b5780630449015a146101a857806306fdde03146101d1578063081812fc146101fc578063095ea7b31461023957806323b872dd14610262575b600080fd5b34801561017757600080fd5b50610192600480360381019061018d91906129e3565b610613565b60405161019f9190612a2b565b60405180910390f35b3480156101b457600080fd5b506101cf60048036038101906101ca9190612bc2565b610674565b005b3480156101dd57600080fd5b506101e6610836565b6040516101f39190612cb0565b60405180910390f35b34801561020857600080fd5b50610223600480360381019061021e9190612cd2565b6108c8565b6040516102309190612d40565b60405180910390f35b34801561024557600080fd5b50610260600480360381019061025b9190612d87565b6108e4565b005b34801561026e57600080fd5b5061028960048036038101906102849190612dc7565b6108fa565b005b34801561029757600080fd5b506102b260048036038101906102ad9190612e1a565b6109fc565b6040516102bf9190612e56565b60405180910390f35b3480156102d457600080fd5b506102ef60048036038101906102ea9190612dc7565b610a45565b005b3480156102fd57600080fd5b5061031860048036038101906103139190612cd2565b610a65565b6040516103259190612d40565b60405180910390f35b34801561033a57600080fd5b5061035560048036038101906103509190612e1a565b610a77565b6040516103629190612e56565b60405180910390f35b34801561037757600080fd5b50610380610b31565b005b34801561038e57600080fd5b506103a960048036038101906103a49190612e1a565b610b45565b6040516103b69190612e56565b60405180910390f35b3480156103cb57600080fd5b506103d4610b5d565b6040516103e79796959493929190612f83565b60405180910390f35b3480156103fc57600080fd5b50610405610c07565b6040516104129190612d40565b60405180910390f35b34801561042757600080fd5b50610430610c31565b60405161043d9190612cb0565b60405180910390f35b34801561045257600080fd5b5061046d60048036038101906104689190613033565b610cc3565b005b34801561047b57600080fd5b50610484610cd9565b6040516104919190612e56565b60405180910390f35b3480156104a657600080fd5b506104c160048036038101906104bc9190613073565b610cdf565b005b3480156104cf57600080fd5b506104ea60048036038101906104e59190612cd2565b610d04565b6040516104f79190612cb0565b60405180910390f35b61051a60048036038101906105159190613197565b610e17565b005b34801561052857600080fd5b50610543600480360381019061053e9190612cd2565b610fcb565b6040516105509190612e56565b60405180910390f35b34801561056557600080fd5b5061056e610fe3565b60405161057b9190612e56565b60405180910390f35b34801561059057600080fd5b506105ab60048036038101906105a69190613206565b610fe9565b6040516105b89190612a2b565b60405180910390f35b3480156105cd57600080fd5b506105e860048036038101906105e39190613246565b61107d565b005b3480156105f657600080fd5b50610611600480360381019061060c9190612e1a565b61111c565b005b6000634906490660e01b7bffffffffffffffffffffffffffffffffffffffffffffffffffffffff1916827bffffffffffffffffffffffffffffffffffffffffffffffffffffffff1916148061066d575061066c826111a2565b5b9050919050565b814211156106b7576040517f08c379a00000000000000000000000000000000000000000000000000000000081526004016106ae906132d2565b60405180910390fd5b6000600a60003373ffffffffffffffffffffffffffffffffffffffff1673ffffffffffffffffffffffffffffffffffffffff168152602001908152602001600020549050600060405180608001604052803373ffffffffffffffffffffffffffffffffffffffff168152602001868152602001838152602001858152509050600061074961074483611284565b6112ec565b905060006107578286611306565b9050610761610c07565b73ffffffffffffffffffffffffffffffffffffffff168173ffffffffffffffffffffffffffffffffffffffff16146107ce576040517f08c379a00000000000000000000000000000000000000000000000000000000081526004016107c59061333e565b60405180910390fd5b600a60003373ffffffffffffffffffffffffffffffffffffffff1673ffffffffffffffffffffffffffffffffffffffff168152602001908152602001600020600081548092919061081e9061338d565b919050555061082d3388611332565b50505050505050565b60606000805461084590613404565b80601f016020809104026020016040519081016040528092919081815260200182805461087190613404565b80156108be5780601f10610893576101008083540402835291602001916108be565b820191906000526020600020905b8154815290600101906020018083116108a157829003601f168201915b5050505050905090565b60006108d382611378565b506108dd82611400565b9050919050565b6108f682826108f161143d565b611445565b5050565b600073ffffffffffffffffffffffffffffffffffffffff168273ffffffffffffffffffffffffffffffffffffffff160361096c5760006040517f64a0ae920000000000000000000000000000000000000000000000000000000081526004016109639190612d40565b60405180910390fd5b6000610980838361097b61143d565b611457565b90508373ffffffffffffffffffffffffffffffffffffffff168173ffffffffffffffffffffffffffffffffffffffff16146109f6578382826040517f64283d7b0000000000000000000000000000000000000000000000000000000081526004016109ed93929190613435565b60405180910390fd5b50505050565b6000600a60008373ffffffffffffffffffffffffffffffffffffffff1673ffffffffffffffffffffffffffffffffffffffff168152602001908152602001600020549050919050565b610a6083838360405180602001604052806000815250610cdf565b505050565b6000610a7082611378565b9050919050565b60008073ffffffffffffffffffffffffffffffffffffffff168273ffffffffffffffffffffffffffffffffffffffff1603610aea5760006040517f89c62b64000000000000000000000000000000000000000000000000000000008152600401610ae19190612d40565b60405180910390fd5b600360008373ffffffffffffffffffffffffffffffffffffffff1673ffffffffffffffffffffffffffffffffffffffff168152602001908152602001600020549050919050565b610b39611671565b610b4360006116f8565b565b600a6020528060005260406000206000915090505481565b600060608060008060006060610b716117be565b610b796117f9565b46306000801b600067ffffffffffffffff811115610b9a57610b99612a97565b5b604051908082528060200260200182016040528015610bc85781602001602082028036833780820191505090505b507f0f00000000000000000000000000000000000000000000000000000000000000959493929190965096509650965096509650965090919293949596565b6000600760009054906101000a900473ffffffffffffffffffffffffffffffffffffffff16905090565b606060018054610c4090613404565b80601f0160208091040260200160405190810160405280929190818152602001828054610c6c90613404565b8015610cb95780601f10610c8e57610100808354040283529160200191610cb9565b820191906000526020600020905b815481529060010190602001808311610c9c57829003601f168201915b5050505050905090565b610cd5610cce61143d565b8383611834565b5050565b600d5481565b610cea8484846108fa565b610cfe610cf561143d565b858585856119a3565b50505050565b6060610d0f82611378565b506000600660008481526020019081526020016000208054610d3090613404565b80601f0160208091040260200160405190810160405280929190818152602001828054610d5c90613404565b8015610da95780601f10610d7e57610100808354040283529160200191610da9565b820191906000526020600020905b815481529060010190602001808311610d8c57829003601f168201915b505050505090506000610dba611b54565b90506000815103610dcf578192505050610e12565b600082511115610e04578082604051602001610dec9291906134a8565b60405160208183030381529060405292505050610e12565b610e0d84611b6b565b925050505b919050565b6000600b6000848152602001908152602001600020549050600c54600d5410610e75576040517f08c379a0000000000000000000000000000000000000000000000000000000008152600401610e6c90613518565b60405180910390fd5b60008111610eb8576040517f08c379a0000000000000000000000000000000000000000000000000000000008152600401610eaf90613584565b60405180910390fd5b80341015610efb576040517f08c379a0000000000000000000000000000000000000000000000000000000008152600401610ef2906135f0565b60405180910390fd5b610f03610c07565b73ffffffffffffffffffffffffffffffffffffffff166108fc349081150290604051600060405180830381858888f19350505050158015610f48573d6000803e3d6000fd5b50610f538484611bd4565b610f5d8383611ccd565b600d6000815480929190610f709061338d565b91905055508373ffffffffffffffffffffffffffffffffffffffff167f85a66b9141978db9980f7e0ce3b468cebf4f7999f32b23091c5c03e798b1ba7a8484604051610fbd929190613610565b60405180910390a250505050565b600b6020528060005260406000206000915090505481565b600c5481565b6000600560008473ffffffffffffffffffffffffffffffffffffffff1673ffffffffffffffffffffffffffffffffffffffff16815260200190815260200160002060008373ffffffffffffffffffffffffffffffffffffffff1673ffffffffffffffffffffffffffffffffffffffff16815260200190815260200160002060009054906101000a900460ff16905092915050565b611085611671565b600081116110c8576040517f08c379a00000000000000000000000000000000000000000000000000000000081526004016110bf9061368c565b60405180910390fd5b80600b600084815260200190815260200160002081905550817fa0f1665b7b659537b52deec61ea64d134a3bccda74c7f4e79f2246e7a8187a8a826040516111109190612e56565b60405180910390a25050565b611124611671565b600073ffffffffffffffffffffffffffffffffffffffff168173ffffffffffffffffffffffffffffffffffffffff16036111965760006040517f1e4fbdf700000000000000000000000000000000000000000000000000000000815260040161118d9190612d40565b60405180910390fd5b61119f816116f8565b50565b60007f80ac58cd000000000000000000000000000000000000000000000000000000007bffffffffffffffffffffffffffffffffffffffffffffffffffffffff1916827bffffffffffffffffffffffffffffffffffffffffffffffffffffffff1916148061126d57507f5b5e139f000000000000000000000000000000000000000000000000000000007bffffffffffffffffffffffffffffffffffffffffffffffffffffffff1916827bffffffffffffffffffffffffffffffffffffffffffffffffffffffff1916145b8061127d575061127c82611d29565b5b9050919050565b60007f06007120c1df7b4a110511e17b67c8d8123e10f67acc321c58e1de4c95e11bfc82600001518360200151846040015185606001516040516020016112cf9594939291906136ac565b604051602081830303815290604052805190602001209050919050565b60006112ff6112f9611d93565b83611e4a565b9050919050565b6000806000806113168686611e8b565b9250925092506113268282611ee7565b82935050505092915050565b61133b8161204b565b7fc5fcfb68332ef11d542d4ab7e75045a5e4d66eb2d8f846f13a48356b32e534db818360405161136c9291906136ff565b60405180910390a15050565b600080611384836120d1565b9050600073ffffffffffffffffffffffffffffffffffffffff168173ffffffffffffffffffffffffffffffffffffffff16036113f757826040517f7e2732890000000000000000000000000000000000000000000000000000000081526004016113ee9190612e56565b60405180910390fd5b80915050919050565b60006004600083815260200190815260200160002060009054906101000a900473ffffffffffffffffffffffffffffffffffffffff169050919050565b600033905090565b611452838383600161210e565b505050565b600080611463846120d1565b9050600073ffffffffffffffffffffffffffffffffffffffff168373ffffffffffffffffffffffffffffffffffffffff16146114a5576114a48184866122d3565b5b600073ffffffffffffffffffffffffffffffffffffffff168173ffffffffffffffffffffffffffffffffffffffff1614611536576114e760008560008061210e565b6001600360008373ffffffffffffffffffffffffffffffffffffffff1673ffffffffffffffffffffffffffffffffffffffff168152602001908152602001600020600082825403925050819055505b600073ffffffffffffffffffffffffffffffffffffffff168573ffffffffffffffffffffffffffffffffffffffff16146115b9576001600360008773ffffffffffffffffffffffffffffffffffffffff1673ffffffffffffffffffffffffffffffffffffffff168152602001908152602001600020600082825401925050819055505b846002600086815260200190815260200160002060006101000a81548173ffffffffffffffffffffffffffffffffffffffff021916908373ffffffffffffffffffffffffffffffffffffffff160217905550838573ffffffffffffffffffffffffffffffffffffffff168273ffffffffffffffffffffffffffffffffffffffff167fddf252ad1be2c89b69c2b068fc378daa952ba7f163c4a11628f55a4df523b3ef60405160405180910390a4809150509392505050565b61167961143d565b73ffffffffffffffffffffffffffffffffffffffff16611697610c07565b73ffffffffffffffffffffffffffffffffffffffff16146116f6576116ba61143d565b6040517f118cdaa70000000000000000000000000000000000000000000000000000000081526004016116ed9190612d40565b60405180910390fd5b565b6000600760009054906101000a900473ffffffffffffffffffffffffffffffffffffffff16905081600760006101000a81548173ffffffffffffffffffffffffffffffffffffffff021916908373ffffffffffffffffffffffffffffffffffffffff1602179055508173ffffffffffffffffffffffffffffffffffffffff168173ffffffffffffffffffffffffffffffffffffffff167f8be0079c531659141344cd1fd0a4f28419497f9722a3daafe3b4186f6b6457e060405160405180910390a35050565b60606117f460087f000000000000000000000000000000000000000000000000000000000000000061239790919063ffffffff16565b905090565b606061182f60097f000000000000000000000000000000000000000000000000000000000000000061239790919063ffffffff16565b905090565b600073ffffffffffffffffffffffffffffffffffffffff168273ffffffffffffffffffffffffffffffffffffffff16036118a557816040517f5b08ba1800000000000000000000000000000000000000000000000000000000815260040161189c9190612d40565b60405180910390fd5b80600560008573ffffffffffffffffffffffffffffffffffffffff1673ffffffffffffffffffffffffffffffffffffffff16815260200190815260200160002060008473ffffffffffffffffffffffffffffffffffffffff1673ffffffffffffffffffffffffffffffffffffffff16815260200190815260200160002060006101000a81548160ff0219169083151502179055508173ffffffffffffffffffffffffffffffffffffffff168373ffffffffffffffffffffffffffffffffffffffff167f17307eab39ab6107e8899845ad3d59bd9653f200f220920489ca2b5937696c31836040516119969190612a2b565b60405180910390a3505050565b60008373ffffffffffffffffffffffffffffffffffffffff163b1115611b4d578273ffffffffffffffffffffffffffffffffffffffff1663150b7a02868685856040518563ffffffff1660e01b8152600401611a02949392919061377d565b6020604051808303816000875af1925050508015611a3e57506040513d601f19601f82011682018060405250810190611a3b91906137de565b60015b611ac2573d8060008114611a6e576040519150601f19603f3d011682016040523d82523d6000602084013e611a73565b606091505b506000815103611aba57836040517f64a0ae92000000000000000000000000000000000000000000000000000000008152600401611ab19190612d40565b60405180910390fd5b805181602001fd5b63150b7a0260e01b7bffffffffffffffffffffffffffffffffffffffffffffffffffffffff1916817bffffffffffffffffffffffffffffffffffffffffffffffffffffffff191614611b4b57836040517f64a0ae92000000000000000000000000000000000000000000000000000000008152600401611b429190612d40565b60405180910390fd5b505b5050505050565b606060405180602001604052806000815250905090565b6060611b7682611378565b506000611b81611b54565b90506000815111611ba15760405180602001604052806000815250611bcc565b80611bab84612447565b604051602001611bbc9291906134a8565b6040516020818303038152906040525b915050919050565b600073ffffffffffffffffffffffffffffffffffffffff168273ffffffffffffffffffffffffffffffffffffffff1603611c465760006040517f64a0ae92000000000000000000000000000000000000000000000000000000008152600401611c3d9190612d40565b60405180910390fd5b6000611c5483836000611457565b9050600073ffffffffffffffffffffffffffffffffffffffff168173ffffffffffffffffffffffffffffffffffffffff1614611cc85760006040517f73c6ac6e000000000000000000000000000000000000000000000000000000008152600401611cbf9190612d40565b60405180910390fd5b505050565b80600660008481526020019081526020016000209081611ced91906139b7565b507ff8e1a15aba9398e019f0b49df1a4fde98ee17ae345cb5f6b5e2c27f5033e8ce782604051611d1d9190612e56565b60405180910390a15050565b60007f01ffc9a7000000000000000000000000000000000000000000000000000000007bffffffffffffffffffffffffffffffffffffffffffffffffffffffff1916827bffffffffffffffffffffffffffffffffffffffffffffffffffffffff1916149050919050565b60007f000000000000000000000000000000000000000000000000000000000000000073ffffffffffffffffffffffffffffffffffffffff163073ffffffffffffffffffffffffffffffffffffffff16148015611e0f57507f000000000000000000000000000000000000000000000000000000000000000046145b15611e3c577f00000000000000000000000000000000000000000000000000000000000000009050611e47565b611e44612515565b90505b90565b60006040517f190100000000000000000000000000000000000000000000000000000000000081528360028201528260228201526042812091505092915050565b60008060006041845103611ed05760008060006020870151925060408701519150606087015160001a9050611ec2888285856125ab565b955095509550505050611ee0565b60006002855160001b9250925092505b9250925092565b60006003811115611efb57611efa613a89565b5b826003811115611f0e57611f0d613a89565b5b03156120475760016003811115611f2857611f27613a89565b5b826003811115611f3b57611f3a613a89565b5b03611f72576040517ff645eedf00000000000000000000000000000000000000000000000000000000815260040160405180910390fd5b60026003811115611f8657611f85613a89565b5b826003811115611f9957611f98613a89565b5b03611fde578060001c6040517ffce698f7000000000000000000000000000000000000000000000000000000008152600401611fd59190612e56565b60405180910390fd5b600380811115611ff157611ff0613a89565b5b82600381111561200457612003613a89565b5b0361204657806040517fd78bce0c00000000000000000000000000000000000000000000000000000000815260040161203d9190613ab8565b60405180910390fd5b5b5050565b600061205a6000836000611457565b9050600073ffffffffffffffffffffffffffffffffffffffff168173ffffffffffffffffffffffffffffffffffffffff16036120cd57816040517f7e2732890000000000000000000000000000000000000000000000000000000081526004016120c49190612e56565b60405180910390fd5b5050565b60006002600083815260200190815260200160002060009054906101000a900473ffffffffffffffffffffffffffffffffffffffff169050919050565b80806121475750600073ffffffffffffffffffffffffffffffffffffffff168273ffffffffffffffffffffffffffffffffffffffff1614155b1561227b57600061215784611378565b9050600073ffffffffffffffffffffffffffffffffffffffff168373ffffffffffffffffffffffffffffffffffffffff16141580156121c257508273ffffffffffffffffffffffffffffffffffffffff168173ffffffffffffffffffffffffffffffffffffffff1614155b80156121d557506121d38184610fe9565b155b1561221757826040517fa9fbf51f00000000000000000000000000000000000000000000000000000000815260040161220e9190612d40565b60405180910390fd5b811561227957838573ffffffffffffffffffffffffffffffffffffffff168273ffffffffffffffffffffffffffffffffffffffff167f8c5be1e5ebec7d5bd14f71427d1e84f3dd0314c0f7b2291e5b200ac8c7c3b92560405160405180910390a45b505b836004600085815260200190815260200160002060006101000a81548173ffffffffffffffffffffffffffffffffffffffff021916908373ffffffffffffffffffffffffffffffffffffffff16021790555050505050565b6122de83838361269f565b61239257600073ffffffffffffffffffffffffffffffffffffffff168373ffffffffffffffffffffffffffffffffffffffff160361235357806040517f7e27328900000000000000000000000000000000000000000000000000000000815260040161234a9190612e56565b60405180910390fd5b81816040517f177e802f000000000000000000000000000000000000000000000000000000008152600401612389929190613ad3565b60405180910390fd5b505050565b606060ff60001b83146123b4576123ad83612760565b9050612441565b8180546123c090613404565b80601f01602080910402602001604051908101604052809291908181526020018280546123ec90613404565b80156124395780601f1061240e57610100808354040283529160200191612439565b820191906000526020600020905b81548152906001019060200180831161241c57829003601f168201915b505050505090505b92915050565b606060006001612456846127d4565b01905060008167ffffffffffffffff81111561247557612474612a97565b5b6040519080825280601f01601f1916602001820160405280156124a75781602001600182028036833780820191505090505b509050600082602001820190505b60011561250a578080600190039150507f3031323334353637383961626364656600000000000000000000000000000000600a86061a8153600a85816124fe576124fd613afc565b5b049450600085036124b5575b819350505050919050565b60007f8b73c3c69bb8fe3d512ecc4cf759cc79239f7b179b0ffacaa9a75d522b39400f7f00000000000000000000000000000000000000000000000000000000000000007f00000000000000000000000000000000000000000000000000000000000000004630604051602001612590959493929190613b2b565b60405160208183030381529060405280519060200120905090565b60008060007f7fffffffffffffffffffffffffffffff5d576e7357a4501ddfe92f46681b20a08460001c11156125eb576000600385925092509250612695565b6000600188888888604051600081526020016040526040516126109493929190613b9a565b6020604051602081039080840390855afa158015612632573d6000803e3d6000fd5b505050602060405103519050600073ffffffffffffffffffffffffffffffffffffffff168173ffffffffffffffffffffffffffffffffffffffff160361268657600060016000801b93509350935050612695565b8060008060001b935093509350505b9450945094915050565b60008073ffffffffffffffffffffffffffffffffffffffff168373ffffffffffffffffffffffffffffffffffffffff161415801561275757508273ffffffffffffffffffffffffffffffffffffffff168473ffffffffffffffffffffffffffffffffffffffff16148061271857506127178484610fe9565b5b8061275657508273ffffffffffffffffffffffffffffffffffffffff1661273e83611400565b73ffffffffffffffffffffffffffffffffffffffff16145b5b90509392505050565b6060600061276d83612927565b90506000602067ffffffffffffffff81111561278c5761278b612a97565b5b6040519080825280601f01601f1916602001820160405280156127be5781602001600182028036833780820191505090505b5090508181528360208201528092505050919050565b600080600090507a184f03e93ff9f4daa797ed6e38ed64bf6a1f0100000000000000008310612832577a184f03e93ff9f4daa797ed6e38ed64bf6a1f010000000000000000838161282857612827613afc565b5b0492506040810190505b6d04ee2d6d415b85acef8100000000831061286f576d04ee2d6d415b85acef8100000000838161286557612864613afc565b5b0492506020810190505b662386f26fc10000831061289e57662386f26fc10000838161289457612893613afc565b5b0492506010810190505b6305f5e10083106128c7576305f5e10083816128bd576128bc613afc565b5b0492506008810190505b61271083106128ec5761271083816128e2576128e1613afc565b5b0492506004810190505b6064831061290f576064838161290557612904613afc565b5b0492506002810190505b600a831061291e576001810190505b80915050919050565b60008060ff8360001c169050601f81111561296e576040517fb3512b0c00000000000000000000000000000000000000000000000000000000815260040160405180910390fd5b80915050919050565b6000604051905090565b600080fd5b600080fd5b60007fffffffff0000000000000000000000000000000000000000000000000000000082169050919050565b6129c08161298b565b81146129cb57600080fd5b50565b6000813590506129dd816129b7565b92915050565b6000602082840312156129f9576129f8612981565b5b6000612a07848285016129ce565b91505092915050565b60008115159050919050565b612a2581612a10565b82525050565b6000602082019050612a406000830184612a1c565b92915050565b6000819050919050565b612a5981612a46565b8114612a6457600080fd5b50565b600081359050612a7681612a50565b92915050565b600080fd5b600080fd5b6000601f19601f8301169050919050565b7f4e487b7100000000000000000000000000000000000000000000000000000000600052604160045260246000fd5b612acf82612a86565b810181811067ffffffffffffffff82111715612aee57612aed612a97565b5b80604052505050565b6000612b01612977565b9050612b0d8282612ac6565b919050565b600067ffffffffffffffff821115612b2d57612b2c612a97565b5b612b3682612a86565b9050602081019050919050565b82818337600083830152505050565b6000612b65612b6084612b12565b612af7565b905082815260208101848484011115612b8157612b80612a81565b5b612b8c848285612b43565b509392505050565b600082601f830112612ba957612ba8612a7c565b5b8135612bb9848260208601612b52565b91505092915050565b600080600060608486031215612bdb57612bda612981565b5b6000612be986828701612a67565b9350506020612bfa86828701612a67565b925050604084013567ffffffffffffffff811115612c1b57612c1a612986565b5b612c2786828701612b94565b9150509250925092565b600081519050919050565b600082825260208201905092915050565b60005b83811015612c6b578082015181840152602081019050612c50565b60008484015250505050565b6000612c8282612c31565b612c8c8185612c3c565b9350612c9c818560208601612c4d565b612ca581612a86565b840191505092915050565b60006020820190508181036000830152612cca8184612c77565b905092915050565b600060208284031215612ce857612ce7612981565b5b6000612cf684828501612a67565b91505092915050565b600073ffffffffffffffffffffffffffffffffffffffff82169050919050565b6000612d2a82612cff565b9050919050565b612d3a81612d1f565b82525050565b6000602082019050612d556000830184612d31565b92915050565b612d6481612d1f565b8114612d6f57600080fd5b50565b600081359050612d8181612d5b565b92915050565b60008060408385031215612d9e57612d9d612981565b5b6000612dac85828601612d72565b9250506020612dbd85828601612a67565b9150509250929050565b600080600060608486031215612de057612ddf612981565b5b6000612dee86828701612d72565b9350506020612dff86828701612d72565b9250506040612e1086828701612a67565b9150509250925092565b600060208284031215612e3057612e2f612981565b5b6000612e3e84828501612d72565b91505092915050565b612e5081612a46565b82525050565b6000602082019050612e6b6000830184612e47565b92915050565b60007fff0000000000000000000000000000000000000000000000000000000000000082169050919050565b612ea681612e71565b82525050565b6000819050919050565b612ebf81612eac565b82525050565b600081519050919050565b600082825260208201905092915050565b6000819050602082019050919050565b612efa81612a46565b82525050565b6000612f0c8383612ef1565b60208301905092915050565b6000602082019050919050565b6000612f3082612ec5565b612f3a8185612ed0565b9350612f4583612ee1565b8060005b83811015612f76578151612f5d8882612f00565b9750612f6883612f18565b925050600181019050612f49565b5085935050505092915050565b600060e082019050612f98600083018a612e9d565b8181036020830152612faa8189612c77565b90508181036040830152612fbe8188612c77565b9050612fcd6060830187612e47565b612fda6080830186612d31565b612fe760a0830185612eb6565b81810360c0830152612ff98184612f25565b905098975050505050505050565b61301081612a10565b811461301b57600080fd5b50565b60008135905061302d81613007565b92915050565b6000806040838503121561304a57613049612981565b5b600061305885828601612d72565b92505060206130698582860161301e565b9150509250929050565b6000806000806080858703121561308d5761308c612981565b5b600061309b87828801612d72565b94505060206130ac87828801612d72565b93505060406130bd87828801612a67565b925050606085013567ffffffffffffffff8111156130de576130dd612986565b5b6130ea87828801612b94565b91505092959194509250565b600067ffffffffffffffff82111561311157613110612a97565b5b61311a82612a86565b9050602081019050919050565b600061313a613135846130f6565b612af7565b90508281526020810184848401111561315657613155612a81565b5b613161848285612b43565b509392505050565b600082601f83011261317e5761317d612a7c565b5b813561318e848260208601613127565b91505092915050565b6000806000606084860312156131b0576131af612981565b5b60006131be86828701612d72565b93505060206131cf86828701612a67565b925050604084013567ffffffffffffffff8111156131f0576131ef612986565b5b6131fc86828701613169565b9150509250925092565b6000806040838503121561321d5761321c612981565b5b600061322b85828601612d72565b925050602061323c85828601612d72565b9150509250929050565b6000806040838503121561325d5761325c612981565b5b600061326b85828601612a67565b925050602061327c85828601612a67565b9150509250929050565b7f5369676e61747572652065787069726564000000000000000000000000000000600082015250565b60006132bc601183612c3c565b91506132c782613286565b602082019050919050565b600060208201905081810360008301526132eb816132af565b9050919050565b7f496e76616c6964207369676e6174757265000000000000000000000000000000600082015250565b6000613328601183612c3c565b9150613333826132f2565b602082019050919050565b600060208201905081810360008301526133578161331b565b9050919050565b7f4e487b7100000000000000000000000000000000000000000000000000000000600052601160045260246000fd5b600061339882612a46565b91507fffffffffffffffffffffffffffffffffffffffffffffffffffffffffffffffff82036133ca576133c961335e565b5b600182019050919050565b7f4e487b7100000000000000000000000000000000000000000000000000000000600052602260045260246000fd5b6000600282049050600182168061341c57607f821691505b60208210810361342f5761342e6133d5565b5b50919050565b600060608201905061344a6000830186612d31565b6134576020830185612e47565b6134646040830184612d31565b949350505050565b600081905092915050565b600061348282612c31565b61348c818561346c565b935061349c818560208601612c4d565b80840191505092915050565b60006134b48285613477565b91506134c08284613477565b91508190509392505050565b7f546f6b656e206c696d6974207265616368656400000000000000000000000000600082015250565b6000613502601383612c3c565b915061350d826134cc565b602082019050919050565b60006020820190508181036000830152613531816134f5565b9050919050565b7f546f6b656e207072696365206e6f742073657400000000000000000000000000600082015250565b600061356e601383612c3c565b915061357982613538565b602082019050919050565b6000602082019050818103600083015261359d81613561565b9050919050565b7f496e73756666696369656e74207061796d656e74000000000000000000000000600082015250565b60006135da601483612c3c565b91506135e5826135a4565b602082019050919050565b60006020820190508181036000830152613609816135cd565b9050919050565b60006040820190506136256000830185612e47565b81810360208301526136378184612c77565b90509392505050565b7f5072696365206d7573742062652067726561746572207468616e207a65726f00600082015250565b6000613676601f83612c3c565b915061368182613640565b602082019050919050565b600060208201905081810360008301526136a581613669565b9050919050565b600060a0820190506136c16000830188612eb6565b6136ce6020830187612d31565b6136db6040830186612e47565b6136e86060830185612e47565b6136f56080830184612e47565b9695505050505050565b60006040820190506137146000830185612e47565b6137216020830184612d31565b9392505050565b600081519050919050565b600082825260208201905092915050565b600061374f82613728565b6137598185613733565b9350613769818560208601612c4d565b61377281612a86565b840191505092915050565b60006080820190506137926000830187612d31565b61379f6020830186612d31565b6137ac6040830185612e47565b81810360608301526137be8184613744565b905095945050505050565b6000815190506137d8816129b7565b92915050565b6000602082840312156137f4576137f3612981565b5b6000613802848285016137c9565b91505092915050565b60008190508160005260206000209050919050565b60006020601f8301049050919050565b600082821b905092915050565b60006008830261386d7fffffffffffffffffffffffffffffffffffffffffffffffffffffffffffffffff82613830565b6138778683613830565b95508019841693508086168417925050509392505050565b6000819050919050565b60006138b46138af6138aa84612a46565b61388f565b612a46565b9050919050565b6000819050919050565b6138ce83613899565b6138e26138da826138bb565b84845461383d565b825550505050565b600090565b6138f76138ea565b6139028184846138c5565b505050565b5b818110156139265761391b6000826138ef565b600181019050613908565b5050565b601f82111561396b5761393c8161380b565b61394584613820565b81016020851015613954578190505b61396861396085613820565b830182613907565b50505b505050565b600082821c905092915050565b600061398e60001984600802613970565b1980831691505092915050565b60006139a7838361397d565b9150826002028217905092915050565b6139c082612c31565b67ffffffffffffffff8111156139d9576139d8612a97565b5b6139e38254613404565b6139ee82828561392a565b600060209050601f831160018114613a215760008415613a0f578287015190505b613a19858261399b565b865550613a81565b601f198416613a2f8661380b565b60005b82811015613a5757848901518255600182019150602085019450602081019050613a32565b86831015613a745784890151613a70601f89168261397d565b8355505b6001600288020188555050505b505050505050565b7f4e487b7100000000000000000000000000000000000000000000000000000000600052602160045260246000fd5b6000602082019050613acd6000830184612eb6565b92915050565b6000604082019050613ae86000830185612d31565b613af56020830184612e47565b9392505050565b7f4e487b7100000000000000000000000000000000000000000000000000000000600052601260045260246000fd5b600060a082019050613b406000830188612eb6565b613b4d6020830187612eb6565b613b5a6040830186612eb6565b613b676060830185612e47565b613b746080830184612d31565b9695505050505050565b600060ff82169050919050565b613b9481613b7e565b82525050565b6000608082019050613baf6000830187612eb6565b613bbc6020830186613b8b565b613bc96040830185612eb6565b613bd66060830184612eb6565b9594505050505056fea26469706673582212209b05d5dc0c118a34478fca40cc8b12845b8db4330165a5f8b08400f9f765652b64736f6c634300081b0033",
  "linkReferences": {},
  "deployedLinkReferences": {}
}